{
  "_format": "hh-sol-artifact-1",
  "contractName": "SecureVault",
  "sourceName": "SecureVault.sol",
  "abi": [
    {
      "inputs": [
        {
          "internalType": "address",
          "name": "forwarder",
          "type": "address"
        }
      ],
      "stateMutability": "nonpayable",
      "type": "constructor"
    },
    {
      "inputs": [
        {
          "internalType": "uint256",
          "name": "requested",
          "type": "uint256"
        },
        {
          "internalType": "uint256",
          "name": "available",
          "type": "uint256"
        }
      ],
      "name": "InsufficientBalance",
      "type": "error"
    },
    {
      "inputs": [
        {
          "internalType": "address",
          "name": "caller",
          "type": "address"
        }
      ],
      "name": "NotOwner",
      "type": "error"
    },
    {
      "inputs": [],
      "name": "ZeroAddress",
      "type": "error"
    },
    {
      "anonymous": false,
      "inputs": [
        {
          "indexed": true,
          "internalType": "address",
          "name": "by",
          "type": "address"
        },
        {
          "indexed": false,
          "internalType": "uint256",
          "name": "oldValue",
          "type": "uint256"
        },
        {
          "indexed": false,
          "internalType": "uint256",
          "name": "newValue",
          "type": "uint256"
        }
      ],
      "name": "CounterSet",
      "type": "event"
    },
    {
      "anonymous": false,
      "inputs": [
        {
          "indexed": true,
          "internalType": "address",
          "name": "by",
          "type": "address"
        },
        {
          "indexed": false,
          "internalType": "uint256",
          "name": "amount",
          "type": "uint256"
        }
      ],
      "name": "Deposited",
      "type": "event"
    },
    {
      "anonymous": false,
      "inputs": [
        {
          "indexed": true,
          "internalType": "address",
          "name": "by",
          "type": "address"
        },
        {
          "indexed": false,
          "internalType": "string",
          "name": "oldLabel",
          "type": "string"
        },
        {
          "indexed": false,
          "internalType": "string",
          "name": "newLabel",
          "type": "string"
        }
      ],
      "name": "LabelSet",
      "type": "event"
    },
    {
      "anonymous": false,
      "inputs": [
        {
          "indexed": true,
          "internalType": "address",
          "name": "previous",
          "type": "address"
        },
        {
          "indexed": true,
          "internalType": "address",
          "name": "next",
          "type": "address"
        }
      ],
      "name": "OwnershipTransferred",
      "type": "event"
    },
    {
      "anonymous": false,
      "inputs": [
        {
          "indexed": true,
          "internalType": "address",
          "name": "to",
          "type": "address"
        },
        {
          "indexed": false,
          "internalType": "uint256",
          "name": "amount",
          "type": "uint256"
        }
      ],
      "name": "Withdrawn",
      "type": "event"
    },
    {
      "inputs": [],
      "name": "counter",
      "outputs": [
        {
          "internalType": "uint256",
          "name": "",
          "type": "uint256"
        }
      ],
      "stateMutability": "view",
      "type": "function"
    },
    {
      "inputs": [],
      "name": "deposit",
      "outputs": [],
      "stateMutability": "payable",
      "type": "function"
    },
    {
      "inputs": [],
      "name": "getState",
      "outputs": [
        {
          "internalType": "address",
          "name": "_owner",
          "type": "address"
        },
        {
          "internalType": "uint256",
          "name": "_counter",
          "type": "uint256"
        },
        {
          "internalType": "string",
          "name": "_label",
          "type": "string"
        },
        {
          "internalType": "uint256",
          "name": "_totalUpdates",
          "type": "uint256"
        },
        {
          "internalType": "uint256",
          "name": "_vaultBalance",
          "type": "uint256"
        }
      ],
      "stateMutability": "view",
      "type": "function"
    },
    {
      "inputs": [
        {
          "internalType": "address",
          "name": "forwarder",
          "type": "address"
        }
      ],
      "name": "isTrustedForwarder",
      "outputs": [
        {
          "internalType": "bool",
          "name": "",
          "type": "bool"
        }
      ],
      "stateMutability": "view",
      "type": "function"
    },
    {
      "inputs": [],
      "name": "label",
      "outputs": [
        {
          "internalType": "string",
          "name": "",
          "type": "string"
        }
      ],
      "stateMutability": "view",
      "type": "function"
    },
    {
      "inputs": [],
      "name": "owner",
      "outputs": [
        {
          "internalType": "address",
          "name": "",
          "type": "address"
        }
      ],
      "stateMutability": "view",
      "type": "function"
    },
    {
      "inputs": [
        {
          "internalType": "uint256",
          "name": "newValue",
          "type": "uint256"
        }
      ],
      "name": "setCounter",
      "outputs": [],
      "stateMutability": "nonpayable",
      "type": "function"
    },
    {
      "inputs": [
        {
          "internalType": "string",
          "name": "newLabel",
          "type": "string"
        }
      ],
      "name": "setLabel",
      "outputs": [],
      "stateMutability": "nonpayable",
      "type": "function"
    },
    {
      "inputs": [],
      "name": "totalUpdates",
      "outputs": [
        {
          "internalType": "uint256",
          "name": "",
          "type": "uint256"
        }
      ],
      "stateMutability": "view",
      "type": "function"
    },
    {
      "inputs": [
        {
          "internalType": "address",
          "name": "newOwner",
          "type": "address"
        }
      ],
      "name": "transferOwnership",
      "outputs": [],
      "stateMutability": "nonpayable",
      "type": "function"
    },
    {
      "inputs": [
        {
          "internalType": "address payable",
          "name": "to",
          "type": "address"
        },
        {
          "internalType": "uint256",
          "name": "amount",
          "type": "uint256"
        }
      ],
      "name": "withdraw",
      "outputs": [],
      "stateMutability": "nonpayable",
      "type": "function"
    },
    {
      "stateMutability": "payable",
      "type": "receive"
    }
  ],
  "bytecode": "0x60a060405234801561000f575f5ffd5b50604051610ce9380380610ce983398101604081905261002e916100ac565b806001600160a01b0381166100895760405162461bcd60e51b815260206004820152601760248201527f436f6e746578743a207a65726f20666f72776172646572000000000000000000604482015260640160405180910390fd5b6001600160a01b0316608052505f80546001600160a01b031916331790556100d9565b5f602082840312156100bc575f5ffd5b81516001600160a01b03811681146100d2575f5ffd5b9392505050565b608051610bf16100f85f395f818161011501526108450152610bf15ff3fe60806040526004361061009d575f3560e01c80638da5cb5b116100625780638da5cb5b1461018b578063bf530969146101c1578063cb4774c4146101e0578063d0e30db014610201578063f2fde38b14610209578063f3fef3a314610228575f5ffd5b80631865c57d146100a85780631b369491146100d6578063572b6c05146100f957806361bc221a146101555780638bb5d9c31461016a575f5ffd5b366100a457005b5f5ffd5b3480156100b3575f5ffd5b506100bc610247565b6040516100cd9594939291906108c1565b60405180910390f35b3480156100e1575f5ffd5b506100eb60035481565b6040519081526020016100cd565b348015610104575f5ffd5b50610145610113366004610912565b7f00000000000000000000000000000000000000000000000000000000000000006001600160a01b0390811691161490565b60405190151581526020016100cd565b348015610160575f5ffd5b506100eb60015481565b348015610175575f5ffd5b50610189610184366004610934565b610305565b005b348015610196575f5ffd5b505f546101a9906001600160a01b031681565b6040516001600160a01b0390911681526020016100cd565b3480156101cc575f5ffd5b506101896101db36600461094b565b6103c2565b3480156101eb575f5ffd5b506101f461050a565b6040516100cd91906109b9565b610189610596565b348015610214575f5ffd5b50610189610223366004610912565b610627565b348015610233575f5ffd5b506101896102423660046109cb565b6106ec565b5f5f60605f5f5f5f9054906101000a90046001600160a01b0316600154600260035447828054610276906109f5565b80601f01602080910402602001604051908101604052809291908181526020018280546102a2906109f5565b80156102ed5780601f106102c4576101008083540402835291602001916102ed565b820191905f5260205f20905b8154815290600101906020018083116102d057829003601f168201915b50505050509250945094509450945094509091929394565b5f61030e610842565b5f549091506001600160a01b0380831691161461034e5760405163245aecd360e01b81526001600160a01b03821660048201526024015b60405180910390fd5b600180549083905560038054905f61036583610a2d565b9190505550610372610842565b6001600160a01b03167ff795c6578842f6e58dc0a48c984076b68db839d692405d5df3afd3894c52f2e282856040516103b5929190918252602082015260400190565b60405180910390a2505050565b5f6103cb610842565b5f549091506001600160a01b038083169116146104065760405163245aecd360e01b81526001600160a01b0382166004820152602401610345565b5f60028054610414906109f5565b80601f0160208091040260200160405190810160405280929190818152602001828054610440906109f5565b801561048b5780601f106104625761010080835404028352916020019161048b565b820191905f5260205f20905b81548152906001019060200180831161046e57829003601f168201915b505050505090508383600291826104a3929190610abc565b5060038054905f6104b383610a2d565b91905055506104c0610842565b6001600160a01b03167f96fa618e30f70031005125c640eb994b8c41805780eae703a231a89da62f5df38286866040516104fc93929190610b77565b60405180910390a250505050565b60028054610517906109f5565b80601f0160208091040260200160405190810160405280929190818152602001828054610543906109f5565b801561058e5780601f106105655761010080835404028352916020019161058e565b820191905f5260205f20905b81548152906001019060200180831161057157829003601f168201915b505050505081565b5f61059f610842565b5f549091506001600160a01b038083169116146105da5760405163245aecd360e01b81526001600160a01b0382166004820152602401610345565b6105e2610842565b6001600160a01b03167f2da466a7b24304f47e87fa2e1e5a81b9831ce54fec19055ce277ca2f39ba42c43460405161061c91815260200190565b60405180910390a250565b5f610630610842565b5f549091506001600160a01b0380831691161461066b5760405163245aecd360e01b81526001600160a01b0382166004820152602401610345565b6001600160a01b0382166106925760405163d92e233d60e01b815260040160405180910390fd5b5f80546040516001600160a01b03808616939216917f8be0079c531659141344cd1fd0a4f28419497f9722a3daafe3b4186f6b6457e091a3505f80546001600160a01b0319166001600160a01b0392909216919091179055565b5f6106f5610842565b5f549091506001600160a01b038083169116146107305760405163245aecd360e01b81526001600160a01b0382166004820152602401610345565b4782111561075a5760405163cf47918160e01b815260048101839052476024820152604401610345565b826001600160a01b03167f7084f5476618d8e60b11ef0d7d3f06914655adb8793e28ff7f018d4c76d505d58360405161079591815260200190565b60405180910390a25f836001600160a01b0316836040515f6040518083038185875af1925050503d805f81146107e6576040519150601f19603f3d011682016040523d82523d5f602084013e6107eb565b606091505b505090508061083c5760405162461bcd60e51b815260206004820152601a60248201527f5661756c743a20455448207472616e73666572206661696c65640000000000006044820152606401610345565b50505050565b5f7f00000000000000000000000000000000000000000000000000000000000000006001600160a01b03163314801561087c575060143610155b1561088e575060131936013560601c90565b503390565b5f81518084528060208401602086015e5f602082860101526020601f19601f83011685010191505092915050565b60018060a01b038616815284602082015260a060408201525f6108e760a0830186610893565b606083019490945250608001529392505050565b6001600160a01b038116811461090f575f5ffd5b50565b5f60208284031215610922575f5ffd5b813561092d816108fb565b9392505050565b5f60208284031215610944575f5ffd5b5035919050565b5f5f6020838503121561095c575f5ffd5b823567ffffffffffffffff811115610972575f5ffd5b8301601f81018513610982575f5ffd5b803567ffffffffffffffff811115610998575f5ffd5b8560208284010111156109a9575f5ffd5b6020919091019590945092505050565b602081525f61092d6020830184610893565b5f5f604083850312156109dc575f5ffd5b82356109e7816108fb565b946020939093013593505050565b600181811c90821680610a0957607f821691505b602082108103610a2757634e487b7160e01b5f52602260045260245ffd5b50919050565b5f60018201610a4a57634e487b7160e01b5f52601160045260245ffd5b5060010190565b634e487b7160e01b5f52604160045260245ffd5b601f821115610ab75782821115610ab757805f5260205f20601f840160051c6020851015610a9057505f5b90810190601f840160051c035f5b81811015610ab3575f83820155600101610a9e565b5050505b505050565b67ffffffffffffffff831115610ad457610ad4610a51565b610ae883610ae283546109f5565b83610a65565b5f601f841160018114610b19575f8515610b025750838201355b5f19600387901b1c1916600186901b178355610b70565b5f83815260208120601f198716915b82811015610b485786850135825560209485019460019092019101610b28565b5086821015610b64575f1960f88860031b161c19848701351681555b505060018560011b0183555b5050505050565b604081525f610b896040830186610893565b8281036020840152838152838560208301375f602085830101526020601f19601f86011682010191505094935050505056fea2646970667358221220a38a68ba595837769f0fab791339f60701bb7540edb4dd6792d424a9e9a59a3764736f6c63430008220033",
  "linkReferences": {},
  "deployedLinkReferences": {}
}