{
  "_format": "hh-sol-artifact-1",
  "contractName": "MinimalForwarder",
  "sourceName": "MinimalForwarder.sol",
  "abi": [
    {
      "inputs": [],
      "stateMutability": "nonpayable",
      "type": "constructor"
    },
    {
      "inputs": [],
      "name": "DOMAIN_SEPARATOR",
      "outputs": [
        {
          "internalType": "bytes32",
          "name": "",
          "type": "bytes32"
        }
      ],
      "stateMutability": "view",
      "type": "function"
    },
    {
      "inputs": [
        {
          "components": [
            {
              "internalType": "address",
              "name": "from",
              "type": "address"
            },
            {
              "internalType": "address",
              "name": "to",
              "type": "address"
            },
            {
              "internalType": "uint256",
              "name": "value",
              "type": "uint256"
            },
            {
              "internalType": "uint256",
              "name": "gas",
              "type": "uint256"
            },
            {
              "internalType": "uint256",
              "name": "nonce",
              "type": "uint256"
            },
            {
              "internalType": "bytes",
              "name": "data",
              "type": "bytes"
            }
          ],
          "internalType": "struct MinimalForwarder.ForwardRequest",
          "name": "req",
          "type": "tuple"
        },
        {
          "internalType": "bytes",
          "name": "sig",
          "type": "bytes"
        }
      ],
      "name": "execute",
      "outputs": [
        {
          "internalType": "bool",
          "name": "success",
          "type": "bool"
        },
        {
          "internalType": "bytes",
          "name": "returndata",
          "type": "bytes"
        }
      ],
      "stateMutability": "payable",
      "type": "function"
    },
    {
      "inputs": [
        {
          "internalType": "address",
          "name": "signer",
          "type": "address"
        }
      ],
      "name": "getNonce",
      "outputs": [
        {
          "internalType": "uint256",
          "name": "",
          "type": "uint256"
        }
      ],
      "stateMutability": "view",
      "type": "function"
    },
    {
      "inputs": [
        {
          "components": [
            {
              "internalType": "address",
              "name": "from",
              "type": "address"
            },
            {
              "internalType": "address",
              "name": "to",
              "type": "address"
            },
            {
              "internalType": "uint256",
              "name": "value",
              "type": "uint256"
            },
            {
              "internalType": "uint256",
              "name": "gas",
              "type": "uint256"
            },
            {
              "internalType": "uint256",
              "name": "nonce",
              "type": "uint256"
            },
            {
              "internalType": "bytes",
              "name": "data",
              "type": "bytes"
            }
          ],
          "internalType": "struct MinimalForwarder.ForwardRequest",
          "name": "req",
          "type": "tuple"
        },
        {
          "internalType": "bytes",
          "name": "sig",
          "type": "bytes"
        }
      ],
      "name": "verify",
      "outputs": [
        {
          "internalType": "bool",
          "name": "",
          "type": "bool"
        }
      ],
      "stateMutability": "view",
      "type": "function"
    }
  ],
  "bytecode": "0x60a060405234801561000f575f5ffd5b50604080518082018252601081526f26b4b734b6b0b62337b93bb0b93232b960811b6020918201528151808301835260018152603160f81b9082015281517f8b73c3c69bb8fe3d512ecc4cf759cc79239f7b179b0ffacaa9a75d522b39400f918101919091527f9e0923a39f515e9a8cebc9fb694b9abf7e4b8c3f7ab6f81b56eabdac504b08dc918101919091527fc89efdaa54c0f20c7adf612882df0950f5a951637e0307cdcb4c672f298b8bc660608201524660808201523060a082015260c00160408051601f19818403018152919052805160209091012060805260805161074f61010b5f395f8181609a0152610454015261074f5ff3fe60806040526004361061003e575f3560e01c80632d0335ab146100425780633644e5151461008957806347153f82146100bc578063bf5d3bdb146100dd575b5f5ffd5b34801561004d575f5ffd5b5061007661005c36600461057d565b6001600160a01b03165f9081526020819052604090205490565b6040519081526020015b60405180910390f35b348015610094575f5ffd5b506100767f000000000000000000000000000000000000000000000000000000000000000081565b6100cf6100ca3660046105aa565b61010c565b604051610080929190610646565b3480156100e8575f5ffd5b506100fc6100f73660046105aa565b610315565b6040519015158152602001610080565b5f606061011a858585610315565b6101755760405162461bcd60e51b815260206004820152602160248201527f466f727761726465723a20626164207369676e6174757265206f72206e6f6e636044820152606560f81b60648201526084015b60405180910390fd5b846040013534146101c85760405162461bcd60e51b815260206004820152601a60248201527f466f727761726465723a2077726f6e67204554482076616c7565000000000000604482015260640161016c565b5f806101d7602088018861057d565b6001600160a01b0316815260208082019290925260409081015f20805460010190556102089190870190870161057d565b6001600160a01b03166060860135604087013561022860a0890189610684565b61023560208b018b61057d565b604051602001610247939291906106ce565b60408051601f1981840301815290829052610261916106f4565b5f60405180830381858888f193505050503d805f811461029c576040519150601f19603f3d011682016040523d82523d5f602084013e6102a1565b606091505b5090925090508161030d578051156102bb57805160208201fd5b60405162461bcd60e51b815260206004820152602160248201527f466f727761726465723a2063616c6c2072657665727465642073696c656e746c6044820152607960f81b606482015260840161016c565b935093915050565b5f6080840135818061032a602088018861057d565b6001600160a01b03166001600160a01b031681526020019081526020015f205414801561037e575061035f602085018561057d565b6001600160a01b0316610373858585610386565b6001600160a01b0316145b949350505050565b5f604182146103d75760405162461bcd60e51b815260206004820152601b60248201527f466f727761726465723a20736967206c656e67746820213d2036350000000000604482015260640161016c565b8235602084013560408501355f1a60016103f088610451565b604080515f8152602081018083529290925260ff841690820152606081018590526080810184905260a0016020604051602081039080840390855afa15801561043b573d5f5f3e3d5ffd5b5050604051601f19015198975050505050505050565b5f7f00000000000000000000000000000000000000000000000000000000000000007fdd8f4b70b0f4393e889bd39128a30628a78b61816a9eb8199759e7a349657e486104a1602085018561057d565b6104b1604086016020870161057d565b6040860135606087013560808801356104cd60a08a018a610684565b6040516104db92919061070a565b6040805191829003822060208301989098526001600160a01b0396871690820152949093166060850152608084019190915260a083015260c082015260e0810191909152610100016040516020818303038152906040528051906020012060405160200161056092919061190160f01b81526002810192909252602282015260420190565b604051602081830303815290604052805190602001209050919050565b5f6020828403121561058d575f5ffd5b81356001600160a01b03811681146105a3575f5ffd5b9392505050565b5f5f5f604084860312156105bc575f5ffd5b833567ffffffffffffffff8111156105d2575f5ffd5b840160c081870312156105e3575f5ffd5b9250602084013567ffffffffffffffff8111156105fe575f5ffd5b8401601f8101861361060e575f5ffd5b803567ffffffffffffffff811115610624575f5ffd5b866020828401011115610635575f5ffd5b939660209190910195509293505050565b8215158152604060208201525f82518060408401528060208501606085015e5f606082850101526060601f19601f8301168401019150509392505050565b5f5f8335601e19843603018112610699575f5ffd5b83018035915067ffffffffffffffff8211156106b3575f5ffd5b6020019150368190038213156106c7575f5ffd5b9250929050565b8284823760609190911b6bffffffffffffffffffffffff19169101908152601401919050565b5f82518060208501845e5f920191825250919050565b818382375f910190815291905056fea2646970667358221220cb1070ed6ce4d722d5e391c5818efcf1453370008f38ece45ffd21928a57a22164736f6c63430008220033",
  "linkReferences": {},
  "deployedLinkReferences": {}
}